{
    "txid": "05f853b66d1f09d1e697486bf133eb42f1179d722fa964455bbc680eab4e0144",
    "hash": "05f853b66d1f09d1e697486bf133eb42f1179d722fa964455bbc680eab4e0144",
    "version": 1,
    "size": 217,
    "locktime": 0,
    "vin": [
        {
            "txid": "4d49a71ec9da436f71ec4ee231d04f292a29cd316f598bb7068feccabdc59485",
            "vout": 0,
            "scriptSig": {
                "asm": "c0e4fe4945348fea1f7aa3770a4e8ddb5eb1551816c7401e3215d267b6fecdad9f6829311b773f44990163310a2c9289bcbec812936ea5e76ed4d64e254e4921[ALL] 0479be667ef9dcbbac55a06295ce870b07029bfcdb2dce28d959f2815b16f81798483ada7726a3c4655da4fbfc0e1108a8fd17b448a68554199c47d08ffb10d4b8",
                "hex": "41c0e4fe4945348fea1f7aa3770a4e8ddb5eb1551816c7401e3215d267b6fecdad9f6829311b773f44990163310a2c9289bcbec812936ea5e76ed4d64e254e492101410479be667ef9dcbbac55a06295ce870b07029bfcdb2dce28d959f2815b16f81798483ada7726a3c4655da4fbfc0e1108a8fd17b448a68554199c47d08ffb10d4b8"
            },
            "sequence": 4294967295
        }
    ],
    "vout": [
        {
            "value": 0.00100000,
            "n": 0,
            "scriptPubKey": {
                "asm": "OP_DUP OP_HASH160 5834479edbbe0539b31ffd3a8f8ebadc2165ed01 OP_EQUALVERIFY OP_CHECKSIG",
                "hex": "76a9145834479edbbe0539b31ffd3a8f8ebadc2165ed0188ac",
                "reqSigs": 1,
                "type": "pubkeyhash",
                "addresses": [
                    "FDsVZ9L1HNzsQv6xCqZgkQDQU5rhtQMAJP"
                ]
            }
        }
    ],
    "hex": "01000000018594c5bdcaec8f06b78b596f31cd292a294fd031e24eec716f43dac91ea7494d000000008441c0e4fe4945348fea1f7aa3770a4e8ddb5eb1551816c7401e3215d267b6fecdad9f6829311b773f44990163310a2c9289bcbec812936ea5e76ed4d64e254e492101410479be667ef9dcbbac55a06295ce870b07029bfcdb2dce28d959f2815b16f81798483ada7726a3c4655da4fbfc0e1108a8fd17b448a68554199c47d08ffb10d4b8ffffffff01a0860100000000001976a9145834479edbbe0539b31ffd3a8f8ebadc2165ed0188ac00000000"
}
