{
    "txid": "bea13b5f794dc351d1d890b525b0af423c49ab49c667c8fd95cbba2fb283cd5e",
    "hash": "bea13b5f794dc351d1d890b525b0af423c49ab49c667c8fd95cbba2fb283cd5e",
    "version": 1,
    "locktime": 0,
    "vin": [
        {
            "txid": "4d49a71ec9da436f71ec4ee231d04f292a29cd316f598bb7068feccabdc59485",
            "vout": 0,
            "scriptSig": {
                "asm": "3044022042da3e29f29518ebcf1fa40a98a285e91e2dfcf472f5e3cde71875650009f2f1022011aab4c37d237c6e31d6c81ad099b259715ecd9ea83d0b302e6938386f358311[ALL] 0479be667ef9dcbbac55a06295ce870b07029bfcdb2dce28d959f2815b16f81798483ada7726a3c4655da4fbfc0e1108a8fd17b448a68554199c47d08ffb10d4b8",
                "hex": "473044022042da3e29f29518ebcf1fa40a98a285e91e2dfcf472f5e3cde71875650009f2f1022011aab4c37d237c6e31d6c81ad099b259715ecd9ea83d0b302e6938386f35831101410479be667ef9dcbbac55a06295ce870b07029bfcdb2dce28d959f2815b16f81798483ada7726a3c4655da4fbfc0e1108a8fd17b448a68554199c47d08ffb10d4b8"
            },
            "sequence": 4294967295
        }
    ],
    "vout": [
        {
            "value": 0.001,
            "n": 0,
            "scriptPubKey": {
                "asm": "OP_DUP OP_HASH160 5834479edbbe0539b31ffd3a8f8ebadc2165ed01 OP_EQUALVERIFY OP_CHECKSIG",
                "hex": "76a9145834479edbbe0539b31ffd3a8f8ebadc2165ed0188ac",
                "reqSigs": 1,
                "type": "pubkeyhash",
                "addresses": [
                    "193P6LtvS4nCnkDvM9uXn1gsSRqh4aDAz7"
                ]
            }
        }
    ],
    "hex": "01000000018594c5bdcaec8f06b78b596f31cd292a294fd031e24eec716f43dac91ea7494d000000008a473044022042da3e29f29518ebcf1fa40a98a285e91e2dfcf472f5e3cde71875650009f2f1022011aab4c37d237c6e31d6c81ad099b259715ecd9ea83d0b302e6938386f35831101410479be667ef9dcbbac55a06295ce870b07029bfcdb2dce28d959f2815b16f81798483ada7726a3c4655da4fbfc0e1108a8fd17b448a68554199c47d08ffb10d4b8ffffffff01a0860100000000001976a9145834479edbbe0539b31ffd3a8f8ebadc2165ed0188ac00000000"
}
