export default [
    {
        txid: '089f2188d5771a7de0589def2b8d6c1a1f33f45b6de26d9a0ef32782f019ecf1',
        hash: '089f2188d5771a7de0589def2b8d6c1a1f33f45b6de26d9a0ef32782f019ecf1',
        version: 2,
        size: 225,
        locktime: 0,
        vin: [
            {
                txid: 'b96da810b15deb312ad4508a165033ca8ffa282f88e5b7b0e79be09a0b0424f9',
                vout: 1,
                scriptSig: {
                    asm: '3044022064084d72b1bb7ca148d1950cf07494ffb397cb3df53b72afa8bd844b80369ecd02203ae21f14ba5019f38bc0b80b99e7c8cc1d5d3360ca7bab56be28ef583fe5c6a6[ALL|FORKID] 02c237f49dd4c812f27b09d69d4c8a4da12744fda8ad63ce151fed2a3f41fd8795',
                    hex: '473044022064084d72b1bb7ca148d1950cf07494ffb397cb3df53b72afa8bd844b80369ecd02203ae21f14ba5019f38bc0b80b99e7c8cc1d5d3360ca7bab56be28ef583fe5c6a6412102c237f49dd4c812f27b09d69d4c8a4da12744fda8ad63ce151fed2a3f41fd8795',
                },
                sequence: 4294967295,
                address:
                    'bitcoincash:qpmytrdsakt0axrrlswvaj069nat3p9s7ct4lsf8k9',
            },
        ],
        vout: [
            {
                value: 0.000042,
                n: 0,
                scriptPubKey: {
                    asm: 'OP_DUP OP_HASH160 6e1da64f04fc29dbe0b8d33a341e05e3afc586eb OP_EQUALVERIFY OP_CHECKSIG',
                    hex: '76a9146e1da64f04fc29dbe0b8d33a341e05e3afc586eb88ac',
                    reqSigs: 1,
                    type: 'pubkeyhash',
                    addresses: [
                        'bitcoincash:qphpmfj0qn7znklqhrfn5dq7qh36l3vxavu346vqcl',
                    ],
                },
            },
            {
                value: 0.6244967,
                n: 1,
                scriptPubKey: {
                    asm: 'OP_DUP OP_HASH160 76458db0ed96fe9863fc1ccec9fa2cfab884b0f6 OP_EQUALVERIFY OP_CHECKSIG',
                    hex: '76a91476458db0ed96fe9863fc1ccec9fa2cfab884b0f688ac',
                    reqSigs: 1,
                    type: 'pubkeyhash',
                    addresses: [
                        'bitcoincash:qpmytrdsakt0axrrlswvaj069nat3p9s7ct4lsf8k9',
                    ],
                },
            },
        ],
        hex: '0200000001f924040b9ae09be7b0b7e5882f28fa8fca3350168a50d42a31eb5db110a86db9010000006a473044022064084d72b1bb7ca148d1950cf07494ffb397cb3df53b72afa8bd844b80369ecd02203ae21f14ba5019f38bc0b80b99e7c8cc1d5d3360ca7bab56be28ef583fe5c6a6412102c237f49dd4c812f27b09d69d4c8a4da12744fda8ad63ce151fed2a3f41fd8795ffffffff0268100000000000001976a9146e1da64f04fc29dbe0b8d33a341e05e3afc586eb88ac06e8b803000000001976a91476458db0ed96fe9863fc1ccec9fa2cfab884b0f688ac00000000',
        blockhash:
            '000000000000000087dd4ca6308e835edfba871fee36d3e53ad3c9545c4b1719',
        confirmations: 2721,
        time: 1614380741,
        blocktime: 1614380741,
        height: 674993,
        address: 'bitcoincash:qpmytrdsakt0axrrlswvaj069nat3p9s7ct4lsf8k9',
    },
    {
        txid: 'ffe3a7500dbcc98021ad581c98d9947054d1950a7f3416664715066d3d20ad72',
        hash: 'ffe3a7500dbcc98021ad581c98d9947054d1950a7f3416664715066d3d20ad72',
        version: 2,
        size: 480,
        locktime: 0,
        vin: [
            {
                txid: 'b980b35b794ad73d8aae312385e82d9be8086e7b743e1c6a468db8db8ac74bd8',
                vout: 3,
                scriptSig: {
                    asm: '30440220538de8f61d716c899e6a2cd78ca46162edaaa5f0d000ebbbc875608e5639170a02206a7fc8f7c16cef1c56667a8da6d5e480f440ecf43238879ad9f8785a0473a72b[ALL|FORKID] 02c237f49dd4c812f27b09d69d4c8a4da12744fda8ad63ce151fed2a3f41fd8795',
                    hex: '4730440220538de8f61d716c899e6a2cd78ca46162edaaa5f0d000ebbbc875608e5639170a02206a7fc8f7c16cef1c56667a8da6d5e480f440ecf43238879ad9f8785a0473a72b412102c237f49dd4c812f27b09d69d4c8a4da12744fda8ad63ce151fed2a3f41fd8795',
                },
                sequence: 4294967295,
                address:
                    'bitcoincash:qpmytrdsakt0axrrlswvaj069nat3p9s7ct4lsf8k9',
            },
            {
                txid: 'b980b35b794ad73d8aae312385e82d9be8086e7b743e1c6a468db8db8ac74bd8',
                vout: 2,
                scriptSig: {
                    asm: '3045022100ce03e19bd181b903adc6f192d4ad0900e6816f6e62282cefff05c22cf36a647602202b296a2ed1805f0b0a9aa5f99158685298e7a0aff406fedb8abb8e0afaf48ca4[ALL|FORKID] 02c237f49dd4c812f27b09d69d4c8a4da12744fda8ad63ce151fed2a3f41fd8795',
                    hex: '483045022100ce03e19bd181b903adc6f192d4ad0900e6816f6e62282cefff05c22cf36a647602202b296a2ed1805f0b0a9aa5f99158685298e7a0aff406fedb8abb8e0afaf48ca4412102c237f49dd4c812f27b09d69d4c8a4da12744fda8ad63ce151fed2a3f41fd8795',
                },
                sequence: 4294967295,
                address:
                    'bitcoincash:qpmytrdsakt0axrrlswvaj069nat3p9s7ct4lsf8k9',
            },
        ],
        vout: [
            {
                value: 0,
                n: 0,
                scriptPubKey: {
                    asm: 'OP_RETURN 5262419 1 1145980243 50d8292c6255cda7afc6c8566fed3cf42a2794e9619740fe8f4c95431271410e 0000000000000003 000000000000005e',
                    hex: '6a04534c500001010453454e442050d8292c6255cda7afc6c8566fed3cf42a2794e9619740fe8f4c95431271410e08000000000000000308000000000000005e',
                    type: 'nulldata',
                },
            },
            {
                value: 0.00000546,
                n: 1,
                scriptPubKey: {
                    asm: 'OP_DUP OP_HASH160 a5417349420ec53b27522fed1a63b1672c0f28ff OP_EQUALVERIFY OP_CHECKSIG',
                    hex: '76a914a5417349420ec53b27522fed1a63b1672c0f28ff88ac',
                    reqSigs: 1,
                    type: 'pubkeyhash',
                    addresses: [
                        'bitcoincash:qzj5zu6fgg8v2we82gh76xnrk9njcregluzgaztm45',
                    ],
                },
            },
            {
                value: 0.00000546,
                n: 2,
                scriptPubKey: {
                    asm: 'OP_DUP OP_HASH160 76458db0ed96fe9863fc1ccec9fa2cfab884b0f6 OP_EQUALVERIFY OP_CHECKSIG',
                    hex: '76a91476458db0ed96fe9863fc1ccec9fa2cfab884b0f688ac',
                    reqSigs: 1,
                    type: 'pubkeyhash',
                    addresses: [
                        'bitcoincash:qpmytrdsakt0axrrlswvaj069nat3p9s7ct4lsf8k9',
                    ],
                },
            },
            {
                value: 4.99996074,
                n: 3,
                scriptPubKey: {
                    asm: 'OP_DUP OP_HASH160 76458db0ed96fe9863fc1ccec9fa2cfab884b0f6 OP_EQUALVERIFY OP_CHECKSIG',
                    hex: '76a91476458db0ed96fe9863fc1ccec9fa2cfab884b0f688ac',
                    reqSigs: 1,
                    type: 'pubkeyhash',
                    addresses: [
                        'bitcoincash:qpmytrdsakt0axrrlswvaj069nat3p9s7ct4lsf8k9',
                    ],
                },
            },
        ],
        hex: '0200000002d84bc78adbb88d466a1c3e747b6e08e89b2de8852331ae8a3dd74a795bb380b9030000006a4730440220538de8f61d716c899e6a2cd78ca46162edaaa5f0d000ebbbc875608e5639170a02206a7fc8f7c16cef1c56667a8da6d5e480f440ecf43238879ad9f8785a0473a72b412102c237f49dd4c812f27b09d69d4c8a4da12744fda8ad63ce151fed2a3f41fd8795ffffffffd84bc78adbb88d466a1c3e747b6e08e89b2de8852331ae8a3dd74a795bb380b9020000006b483045022100ce03e19bd181b903adc6f192d4ad0900e6816f6e62282cefff05c22cf36a647602202b296a2ed1805f0b0a9aa5f99158685298e7a0aff406fedb8abb8e0afaf48ca4412102c237f49dd4c812f27b09d69d4c8a4da12744fda8ad63ce151fed2a3f41fd8795ffffffff040000000000000000406a04534c500001010453454e442050d8292c6255cda7afc6c8566fed3cf42a2794e9619740fe8f4c95431271410e08000000000000000308000000000000005e22020000000000001976a914a5417349420ec53b27522fed1a63b1672c0f28ff88ac22020000000000001976a91476458db0ed96fe9863fc1ccec9fa2cfab884b0f688acaa55cd1d000000001976a91476458db0ed96fe9863fc1ccec9fa2cfab884b0f688ac00000000',
        blockhash:
            '00000000000000007053867de29516374a23d7adfb08ccb47cfbea0e98a49e5b',
        confirmations: 3270,
        time: 1614027278,
        blocktime: 1614027278,
        height: 674444,
        address: 'bitcoincash:qpmytrdsakt0axrrlswvaj069nat3p9s7ct4lsf8k9',
    },
    {
        txid: 'b980b35b794ad73d8aae312385e82d9be8086e7b743e1c6a468db8db8ac74bd8',
        hash: 'b980b35b794ad73d8aae312385e82d9be8086e7b743e1c6a468db8db8ac74bd8',
        version: 2,
        size: 479,
        locktime: 0,
        vin: [
            {
                txid: 'ec9c20c2c5cd5aa4c9261a9f97e68734b175962c4b3d9edc996dd415dd03c2e7',
                vout: 0,
                scriptSig: {
                    asm: '3044022075cb93e60ffb792b2715d96f3d31033e8f385bb9bfeadf99f7b1055d749a33cc022028292ee8ffaed64cbc6f9b680db36e031250672a6b0c5cfd23f9a61977d52ed7[ALL|FORKID] 02c237f49dd4c812f27b09d69d4c8a4da12744fda8ad63ce151fed2a3f41fd8795',
                    hex: '473044022075cb93e60ffb792b2715d96f3d31033e8f385bb9bfeadf99f7b1055d749a33cc022028292ee8ffaed64cbc6f9b680db36e031250672a6b0c5cfd23f9a61977d52ed7412102c237f49dd4c812f27b09d69d4c8a4da12744fda8ad63ce151fed2a3f41fd8795',
                },
                sequence: 4294967295,
                address:
                    'bitcoincash:qpmytrdsakt0axrrlswvaj069nat3p9s7ct4lsf8k9',
            },
            {
                txid: '618d0dd8c0c5fa5a34c6515c865dd72bb76f8311cd6ee9aef153bab20dabc0e6',
                vout: 1,
                scriptSig: {
                    asm: '304402203ea0558cd917eb8f6c286e79ffcc5dd1f5accb66c2e5836628d6be6f9d03ca260220120a6da92b6f44bdfcd3ef7b08263d3f73d99ff4b1f83b8f998ff1355f3f0d2e[ALL|FORKID] 02c237f49dd4c812f27b09d69d4c8a4da12744fda8ad63ce151fed2a3f41fd8795',
                    hex: '47304402203ea0558cd917eb8f6c286e79ffcc5dd1f5accb66c2e5836628d6be6f9d03ca260220120a6da92b6f44bdfcd3ef7b08263d3f73d99ff4b1f83b8f998ff1355f3f0d2e412102c237f49dd4c812f27b09d69d4c8a4da12744fda8ad63ce151fed2a3f41fd8795',
                },
                sequence: 4294967295,
                address:
                    'bitcoincash:qpmytrdsakt0axrrlswvaj069nat3p9s7ct4lsf8k9',
            },
        ],
        vout: [
            {
                value: 0,
                n: 0,
                scriptPubKey: {
                    asm: 'OP_RETURN 5262419 1 1145980243 50d8292c6255cda7afc6c8566fed3cf42a2794e9619740fe8f4c95431271410e 0000000000000003 0000000000000061',
                    hex: '6a04534c500001010453454e442050d8292c6255cda7afc6c8566fed3cf42a2794e9619740fe8f4c95431271410e080000000000000003080000000000000061',
                    type: 'nulldata',
                },
            },
            {
                value: 0.00000546,
                n: 1,
                scriptPubKey: {
                    asm: 'OP_DUP OP_HASH160 d4fa9121bcd065dd93e58831569cf51ef5a74f61 OP_EQUALVERIFY OP_CHECKSIG',
                    hex: '76a914d4fa9121bcd065dd93e58831569cf51ef5a74f6188ac',
                    reqSigs: 1,
                    type: 'pubkeyhash',
                    addresses: [
                        'bitcoincash:qr204yfphngxthvnukyrz45u7500tf60vyea48xwmd',
                    ],
                },
            },
            {
                value: 0.00000546,
                n: 2,
                scriptPubKey: {
                    asm: 'OP_DUP OP_HASH160 76458db0ed96fe9863fc1ccec9fa2cfab884b0f6 OP_EQUALVERIFY OP_CHECKSIG',
                    hex: '76a91476458db0ed96fe9863fc1ccec9fa2cfab884b0f688ac',
                    reqSigs: 1,
                    type: 'pubkeyhash',
                    addresses: [
                        'bitcoincash:qpmytrdsakt0axrrlswvaj069nat3p9s7ct4lsf8k9',
                    ],
                },
            },
            {
                value: 4.99998974,
                n: 3,
                scriptPubKey: {
                    asm: 'OP_DUP OP_HASH160 76458db0ed96fe9863fc1ccec9fa2cfab884b0f6 OP_EQUALVERIFY OP_CHECKSIG',
                    hex: '76a91476458db0ed96fe9863fc1ccec9fa2cfab884b0f688ac',
                    reqSigs: 1,
                    type: 'pubkeyhash',
                    addresses: [
                        'bitcoincash:qpmytrdsakt0axrrlswvaj069nat3p9s7ct4lsf8k9',
                    ],
                },
            },
        ],
        hex: '0200000002e7c203dd15d46d99dc9e3d4b2c9675b13487e6979f1a26c9a45acdc5c2209cec000000006a473044022075cb93e60ffb792b2715d96f3d31033e8f385bb9bfeadf99f7b1055d749a33cc022028292ee8ffaed64cbc6f9b680db36e031250672a6b0c5cfd23f9a61977d52ed7412102c237f49dd4c812f27b09d69d4c8a4da12744fda8ad63ce151fed2a3f41fd8795ffffffffe6c0ab0db2ba53f1aee96ecd11836fb72bd75d865c51c6345afac5c0d80d8d61010000006a47304402203ea0558cd917eb8f6c286e79ffcc5dd1f5accb66c2e5836628d6be6f9d03ca260220120a6da92b6f44bdfcd3ef7b08263d3f73d99ff4b1f83b8f998ff1355f3f0d2e412102c237f49dd4c812f27b09d69d4c8a4da12744fda8ad63ce151fed2a3f41fd8795ffffffff040000000000000000406a04534c500001010453454e442050d8292c6255cda7afc6c8566fed3cf42a2794e9619740fe8f4c95431271410e08000000000000000308000000000000006122020000000000001976a914d4fa9121bcd065dd93e58831569cf51ef5a74f6188ac22020000000000001976a91476458db0ed96fe9863fc1ccec9fa2cfab884b0f688acfe60cd1d000000001976a91476458db0ed96fe9863fc1ccec9fa2cfab884b0f688ac00000000',
        blockhash:
            '0000000000000000a9f812d56e2249b7c462ce499a0852bdfe20bb46c1bb9f92',
        confirmations: 3278,
        time: 1614021424,
        blocktime: 1614021424,
        height: 674436,
        address: 'bitcoincash:qpmytrdsakt0axrrlswvaj069nat3p9s7ct4lsf8k9',
    },
    {
        txid: '618d0dd8c0c5fa5a34c6515c865dd72bb76f8311cd6ee9aef153bab20dabc0e6',
        hash: '618d0dd8c0c5fa5a34c6515c865dd72bb76f8311cd6ee9aef153bab20dabc0e6',
        version: 2,
        size: 436,
        locktime: 0,
        vin: [
            {
                txid: '50d8292c6255cda7afc6c8566fed3cf42a2794e9619740fe8f4c95431271410e',
                vout: 3,
                scriptSig: {
                    asm: '30440220664f988b86035ddcdff6e9c3b8e140712eca297750d056e41577a0bf0059e7ff022030982b3fcab1cab5d6086bc935e941e7d22efbb0ad5ccca0268515c5c8306089[ALL|FORKID] 034509251caa5f01e2787c436949eb94d71dcc451bcde5791ae5b7109255f5f0a3',
                    hex: '4730440220664f988b86035ddcdff6e9c3b8e140712eca297750d056e41577a0bf0059e7ff022030982b3fcab1cab5d6086bc935e941e7d22efbb0ad5ccca0268515c5c83060894121034509251caa5f01e2787c436949eb94d71dcc451bcde5791ae5b7109255f5f0a3',
                },
                sequence: 4294967295,
                address:
                    'bitcoincash:qzudj5fd9t0cknnsc3wzdd4sp46u9r42jcnqnwfss0',
            },
            {
                txid: '50d8292c6255cda7afc6c8566fed3cf42a2794e9619740fe8f4c95431271410e',
                vout: 1,
                scriptSig: {
                    asm: '304402203ce88e0a95d5581ad567c0468c87a08027aa5ecdecd614a168d833d7ecc02c1c022013ddd81147b44ad5488107d5c4d535f7f59e9fa46840451d39422aace284b2b7[ALL|FORKID] 034509251caa5f01e2787c436949eb94d71dcc451bcde5791ae5b7109255f5f0a3',
                    hex: '47304402203ce88e0a95d5581ad567c0468c87a08027aa5ecdecd614a168d833d7ecc02c1c022013ddd81147b44ad5488107d5c4d535f7f59e9fa46840451d39422aace284b2b74121034509251caa5f01e2787c436949eb94d71dcc451bcde5791ae5b7109255f5f0a3',
                },
                sequence: 4294967295,
                address:
                    'bitcoincash:qzudj5fd9t0cknnsc3wzdd4sp46u9r42jcnqnwfss0',
            },
        ],
        vout: [
            {
                value: 0,
                n: 0,
                scriptPubKey: {
                    asm: 'OP_RETURN 5262419 1 1145980243 50d8292c6255cda7afc6c8566fed3cf42a2794e9619740fe8f4c95431271410e 0000000000000064',
                    hex: '6a04534c500001010453454e442050d8292c6255cda7afc6c8566fed3cf42a2794e9619740fe8f4c95431271410e080000000000000064',
                    type: 'nulldata',
                },
            },
            {
                value: 0.00000546,
                n: 1,
                scriptPubKey: {
                    asm: 'OP_DUP OP_HASH160 76458db0ed96fe9863fc1ccec9fa2cfab884b0f6 OP_EQUALVERIFY OP_CHECKSIG',
                    hex: '76a91476458db0ed96fe9863fc1ccec9fa2cfab884b0f688ac',
                    reqSigs: 1,
                    type: 'pubkeyhash',
                    addresses: [
                        'bitcoincash:qpmytrdsakt0axrrlswvaj069nat3p9s7ct4lsf8k9',
                    ],
                },
            },
            {
                value: 0.00088064,
                n: 2,
                scriptPubKey: {
                    asm: 'OP_DUP OP_HASH160 b8d9512d2adf8b4e70c45c26b6b00d75c28eaa96 OP_EQUALVERIFY OP_CHECKSIG',
                    hex: '76a914b8d9512d2adf8b4e70c45c26b6b00d75c28eaa9688ac',
                    reqSigs: 1,
                    type: 'pubkeyhash',
                    addresses: [
                        'bitcoincash:qzudj5fd9t0cknnsc3wzdd4sp46u9r42jcnqnwfss0',
                    ],
                },
            },
        ],
        hex: '02000000020e41711243954c8ffe409761e994272af43ced6f56c8c6afa7cd55622c29d850030000006a4730440220664f988b86035ddcdff6e9c3b8e140712eca297750d056e41577a0bf0059e7ff022030982b3fcab1cab5d6086bc935e941e7d22efbb0ad5ccca0268515c5c83060894121034509251caa5f01e2787c436949eb94d71dcc451bcde5791ae5b7109255f5f0a3ffffffff0e41711243954c8ffe409761e994272af43ced6f56c8c6afa7cd55622c29d850010000006a47304402203ce88e0a95d5581ad567c0468c87a08027aa5ecdecd614a168d833d7ecc02c1c022013ddd81147b44ad5488107d5c4d535f7f59e9fa46840451d39422aace284b2b74121034509251caa5f01e2787c436949eb94d71dcc451bcde5791ae5b7109255f5f0a3ffffffff030000000000000000376a04534c500001010453454e442050d8292c6255cda7afc6c8566fed3cf42a2794e9619740fe8f4c95431271410e08000000000000006422020000000000001976a91476458db0ed96fe9863fc1ccec9fa2cfab884b0f688ac00580100000000001976a914b8d9512d2adf8b4e70c45c26b6b00d75c28eaa9688ac00000000',
        blockhash:
            '000000000000000034c77993a35c74fe2dddace27198681ca1e89e928d0c2fff',
        confirmations: 3571,
        time: 1613859311,
        blocktime: 1613859311,
        height: 674143,
        address: 'bitcoincash:qpmytrdsakt0axrrlswvaj069nat3p9s7ct4lsf8k9',
    },
    {
        txid: 'f90631b48521a4147dd9dd7091ce936eddc0c3e6221ec87fa4fabacc453a0b95',
        hash: 'f90631b48521a4147dd9dd7091ce936eddc0c3e6221ec87fa4fabacc453a0b95',
        version: 2,
        size: 437,
        locktime: 0,
        vin: [
            {
                txid: 'db464f77ac97deabc28df07a7e4a2e261c854a8ec4dc959b89b10531966f6cbf',
                vout: 0,
                scriptSig: {
                    asm: '3044022065622a7aa065f56abe84f3589c983a768e3ef5d72c9352991d6b584a2a16dcb802200c1c0065106207715a024624ed951e851d4f742c55a704e9531bebd2ef84fc14[ALL|FORKID] 0352cbc218d193ceaf4fb38a772856380173db7a908905e3190841b3174c7ae22d',
                    hex: '473044022065622a7aa065f56abe84f3589c983a768e3ef5d72c9352991d6b584a2a16dcb802200c1c0065106207715a024624ed951e851d4f742c55a704e9531bebd2ef84fc1441210352cbc218d193ceaf4fb38a772856380173db7a908905e3190841b3174c7ae22d',
                },
                sequence: 4294967295,
                address:
                    'bitcoincash:qphpmfj0qn7znklqhrfn5dq7qh36l3vxavu346vqcl',
            },
            {
                txid: 'acbb66f826211f40b89e84d9bd2143dfb541d67e1e3c664b17ccd3ba66327a9e',
                vout: 1,
                scriptSig: {
                    asm: '3045022100b475cf7d1eaf37641d2107f13be0ef9acbd17b252ed3f9ae349edfdcd6a97cf402202bf2852dfa905e6d50c96a622d2838408ceb979245a4342d5096acc938135804[ALL|FORKID] 0352cbc218d193ceaf4fb38a772856380173db7a908905e3190841b3174c7ae22d',
                    hex: '483045022100b475cf7d1eaf37641d2107f13be0ef9acbd17b252ed3f9ae349edfdcd6a97cf402202bf2852dfa905e6d50c96a622d2838408ceb979245a4342d5096acc93813580441210352cbc218d193ceaf4fb38a772856380173db7a908905e3190841b3174c7ae22d',
                },
                sequence: 4294967295,
                address:
                    'bitcoincash:qphpmfj0qn7znklqhrfn5dq7qh36l3vxavu346vqcl',
            },
        ],
        vout: [
            {
                value: 0,
                n: 0,
                scriptPubKey: {
                    asm: 'OP_RETURN 5262419 1 1145980243 bfddfcfc9fb9a8d61ed74fa94b5e32ccc03305797eea461658303df5805578ef 0000000000000001',
                    hex: '6a04534c500001010453454e4420bfddfcfc9fb9a8d61ed74fa94b5e32ccc03305797eea461658303df5805578ef080000000000000001',
                    type: 'nulldata',
                },
            },
            {
                value: 0.00000546,
                n: 1,
                scriptPubKey: {
                    asm: 'OP_DUP OP_HASH160 76458db0ed96fe9863fc1ccec9fa2cfab884b0f6 OP_EQUALVERIFY OP_CHECKSIG',
                    hex: '76a91476458db0ed96fe9863fc1ccec9fa2cfab884b0f688ac',
                    reqSigs: 1,
                    type: 'pubkeyhash',
                    addresses: [
                        'bitcoincash:qpmytrdsakt0axrrlswvaj069nat3p9s7ct4lsf8k9',
                    ],
                },
            },
            {
                value: 9.99997101,
                n: 2,
                scriptPubKey: {
                    asm: 'OP_DUP OP_HASH160 6e1da64f04fc29dbe0b8d33a341e05e3afc586eb OP_EQUALVERIFY OP_CHECKSIG',
                    hex: '76a9146e1da64f04fc29dbe0b8d33a341e05e3afc586eb88ac',
                    reqSigs: 1,
                    type: 'pubkeyhash',
                    addresses: [
                        'bitcoincash:qphpmfj0qn7znklqhrfn5dq7qh36l3vxavu346vqcl',
                    ],
                },
            },
        ],
        hex: '0200000002bf6c6f963105b1899b95dcc48e4a851c262e4a7e7af08dc2abde97ac774f46db000000006a473044022065622a7aa065f56abe84f3589c983a768e3ef5d72c9352991d6b584a2a16dcb802200c1c0065106207715a024624ed951e851d4f742c55a704e9531bebd2ef84fc1441210352cbc218d193ceaf4fb38a772856380173db7a908905e3190841b3174c7ae22dffffffff9e7a3266bad3cc174b663c1e7ed641b5df4321bdd9849eb8401f2126f866bbac010000006b483045022100b475cf7d1eaf37641d2107f13be0ef9acbd17b252ed3f9ae349edfdcd6a97cf402202bf2852dfa905e6d50c96a622d2838408ceb979245a4342d5096acc93813580441210352cbc218d193ceaf4fb38a772856380173db7a908905e3190841b3174c7ae22dffffffff030000000000000000376a04534c500001010453454e4420bfddfcfc9fb9a8d61ed74fa94b5e32ccc03305797eea461658303df5805578ef08000000000000000122020000000000001976a91476458db0ed96fe9863fc1ccec9fa2cfab884b0f688acadbe9a3b000000001976a9146e1da64f04fc29dbe0b8d33a341e05e3afc586eb88ac00000000',
        blockhash:
            '0000000000000000132378b84a7477b7d601faedec302264bde1e89b1480e364',
        confirmations: 5013,
        time: 1612966022,
        blocktime: 1612966022,
        height: 672701,
        address: 'bitcoincash:qpmytrdsakt0axrrlswvaj069nat3p9s7ct4lsf8k9',
    },
    {
        txid: '42d39fbe068a40fe691f987b22fdf04b80f94d71d2fec20a58125e7b1a06d2a9',
        hash: '42d39fbe068a40fe691f987b22fdf04b80f94d71d2fec20a58125e7b1a06d2a9',
        version: 2,
        size: 226,
        locktime: 0,
        vin: [
            {
                txid: '5e0436c6741e226d05c5b7e7e23de8213d3583e2669e50a80b908bf4cb471317',
                vout: 1,
                scriptSig: {
                    asm: '3045022100f8a8eca8f5d6149511c518d41015512f8164a5be6f01e9efd609db9a429f4872022059121e122043b43eae77b5e132b8f798a290e6eed8a2026a0656540cd1bd752b[ALL|FORKID] 0352cbc218d193ceaf4fb38a772856380173db7a908905e3190841b3174c7ae22d',
                    hex: '483045022100f8a8eca8f5d6149511c518d41015512f8164a5be6f01e9efd609db9a429f4872022059121e122043b43eae77b5e132b8f798a290e6eed8a2026a0656540cd1bd752b41210352cbc218d193ceaf4fb38a772856380173db7a908905e3190841b3174c7ae22d',
                },
                sequence: 4294967295,
                address:
                    'bitcoincash:qphpmfj0qn7znklqhrfn5dq7qh36l3vxavu346vqcl',
            },
        ],
        vout: [
            {
                value: 3,
                n: 0,
                scriptPubKey: {
                    asm: 'OP_DUP OP_HASH160 76458db0ed96fe9863fc1ccec9fa2cfab884b0f6 OP_EQUALVERIFY OP_CHECKSIG',
                    hex: '76a91476458db0ed96fe9863fc1ccec9fa2cfab884b0f688ac',
                    reqSigs: 1,
                    type: 'pubkeyhash',
                    addresses: [
                        'bitcoincash:qpmytrdsakt0axrrlswvaj069nat3p9s7ct4lsf8k9',
                    ],
                },
            },
            {
                value: 6.9999586,
                n: 1,
                scriptPubKey: {
                    asm: 'OP_DUP OP_HASH160 6e1da64f04fc29dbe0b8d33a341e05e3afc586eb OP_EQUALVERIFY OP_CHECKSIG',
                    hex: '76a9146e1da64f04fc29dbe0b8d33a341e05e3afc586eb88ac',
                    reqSigs: 1,
                    type: 'pubkeyhash',
                    addresses: [
                        'bitcoincash:qphpmfj0qn7znklqhrfn5dq7qh36l3vxavu346vqcl',
                    ],
                },
            },
        ],
        hex: '0200000001171347cbf48b900ba8509e66e283353d21e83de2e7b7c5056d221e74c636045e010000006b483045022100f8a8eca8f5d6149511c518d41015512f8164a5be6f01e9efd609db9a429f4872022059121e122043b43eae77b5e132b8f798a290e6eed8a2026a0656540cd1bd752b41210352cbc218d193ceaf4fb38a772856380173db7a908905e3190841b3174c7ae22dffffffff0200a3e111000000001976a91476458db0ed96fe9863fc1ccec9fa2cfab884b0f688acd416b929000000001976a9146e1da64f04fc29dbe0b8d33a341e05e3afc586eb88ac00000000',
        blockhash:
            '00000000000000008f563edf8604e537fe0d1e80f1c7c2d97dd094824f804ba3',
        confirmations: 5637,
        time: 1612567121,
        blocktime: 1612567121,
        height: 672077,
        address: 'bitcoincash:qpmytrdsakt0axrrlswvaj069nat3p9s7ct4lsf8k9',
    },
    {
        txid: 'b96da810b15deb312ad4508a165033ca8ffa282f88e5b7b0e79be09a0b0424f9',
        hash: 'b96da810b15deb312ad4508a165033ca8ffa282f88e5b7b0e79be09a0b0424f9',
        version: 2,
        size: 226,
        locktime: 0,
        vin: [
            {
                txid: '9ad75af97f0617a3729c2bd31bf7c4b380230e661cc921a3c6be0febc75a3e49',
                vout: 1,
                scriptSig: {
                    asm: '3045022100d59e6fad4d1d57796f229a7d4aa3b01fc3241132dae9bc406c66fa33d7aef21c022036a5f432d6d99f65848ac12c00bde2b5ba7e63a9f9a74349d9ab8ec39db26f8e[ALL|FORKID] 02c237f49dd4c812f27b09d69d4c8a4da12744fda8ad63ce151fed2a3f41fd8795',
                    hex: '483045022100d59e6fad4d1d57796f229a7d4aa3b01fc3241132dae9bc406c66fa33d7aef21c022036a5f432d6d99f65848ac12c00bde2b5ba7e63a9f9a74349d9ab8ec39db26f8e412102c237f49dd4c812f27b09d69d4c8a4da12744fda8ad63ce151fed2a3f41fd8795',
                },
                sequence: 4294967295,
                address:
                    'bitcoincash:qpmytrdsakt0axrrlswvaj069nat3p9s7ct4lsf8k9',
            },
        ],
        vout: [
            {
                value: 0.12345,
                n: 0,
                scriptPubKey: {
                    asm: 'OP_DUP OP_HASH160 6e1da64f04fc29dbe0b8d33a341e05e3afc586eb OP_EQUALVERIFY OP_CHECKSIG',
                    hex: '76a9146e1da64f04fc29dbe0b8d33a341e05e3afc586eb88ac',
                    reqSigs: 1,
                    type: 'pubkeyhash',
                    addresses: [
                        'bitcoincash:qphpmfj0qn7znklqhrfn5dq7qh36l3vxavu346vqcl',
                    ],
                },
            },
            {
                value: 0.62455003,
                n: 1,
                scriptPubKey: {
                    asm: 'OP_DUP OP_HASH160 76458db0ed96fe9863fc1ccec9fa2cfab884b0f6 OP_EQUALVERIFY OP_CHECKSIG',
                    hex: '76a91476458db0ed96fe9863fc1ccec9fa2cfab884b0f688ac',
                    reqSigs: 1,
                    type: 'pubkeyhash',
                    addresses: [
                        'bitcoincash:qpmytrdsakt0axrrlswvaj069nat3p9s7ct4lsf8k9',
                    ],
                },
            },
        ],
        hex: '0200000001493e5ac7eb0fbec6a321c91c660e2380b3c4f71bd32b9c72a317067ff95ad79a010000006b483045022100d59e6fad4d1d57796f229a7d4aa3b01fc3241132dae9bc406c66fa33d7aef21c022036a5f432d6d99f65848ac12c00bde2b5ba7e63a9f9a74349d9ab8ec39db26f8e412102c237f49dd4c812f27b09d69d4c8a4da12744fda8ad63ce151fed2a3f41fd8795ffffffff02a85ebc00000000001976a9146e1da64f04fc29dbe0b8d33a341e05e3afc586eb88acdbfcb803000000001976a91476458db0ed96fe9863fc1ccec9fa2cfab884b0f688ac00000000',
        blockhash:
            '00000000000000008f563edf8604e537fe0d1e80f1c7c2d97dd094824f804ba3',
        confirmations: 5637,
        time: 1612567121,
        blocktime: 1612567121,
        height: 672077,
        address: 'bitcoincash:qpmytrdsakt0axrrlswvaj069nat3p9s7ct4lsf8k9',
    },
    {
        txid: 'db464f77ac97deabc28df07a7e4a2e261c854a8ec4dc959b89b10531966f6cbf',
        hash: 'db464f77ac97deabc28df07a7e4a2e261c854a8ec4dc959b89b10531966f6cbf',
        version: 2,
        size: 225,
        locktime: 0,
        vin: [
            {
                txid: '1452267e57429edcfdcb1184b24becea6ddf8f8a4f8e130dad6248545d9f8e75',
                vout: 1,
                scriptSig: {
                    asm: '30440220184921bfce634a57b5220f06b11b64c0cb7e67ecd9c634335e3e933e35a7a969022038b2074e1d75aa4f6945d150bae5b8a1d426f4284da2b96336fa0fc741eb6de7[ALL|FORKID] 02c237f49dd4c812f27b09d69d4c8a4da12744fda8ad63ce151fed2a3f41fd8795',
                    hex: '4730440220184921bfce634a57b5220f06b11b64c0cb7e67ecd9c634335e3e933e35a7a969022038b2074e1d75aa4f6945d150bae5b8a1d426f4284da2b96336fa0fc741eb6de7412102c237f49dd4c812f27b09d69d4c8a4da12744fda8ad63ce151fed2a3f41fd8795',
                },
                sequence: 4294967295,
                address:
                    'bitcoincash:qpmytrdsakt0axrrlswvaj069nat3p9s7ct4lsf8k9',
            },
        ],
        vout: [
            {
                value: 10.00000001,
                n: 0,
                scriptPubKey: {
                    asm: 'OP_DUP OP_HASH160 6e1da64f04fc29dbe0b8d33a341e05e3afc586eb OP_EQUALVERIFY OP_CHECKSIG',
                    hex: '76a9146e1da64f04fc29dbe0b8d33a341e05e3afc586eb88ac',
                    reqSigs: 1,
                    type: 'pubkeyhash',
                    addresses: [
                        'bitcoincash:qphpmfj0qn7znklqhrfn5dq7qh36l3vxavu346vqcl',
                    ],
                },
            },
            {
                value: 2.8830607,
                n: 1,
                scriptPubKey: {
                    asm: 'OP_DUP OP_HASH160 76458db0ed96fe9863fc1ccec9fa2cfab884b0f6 OP_EQUALVERIFY OP_CHECKSIG',
                    hex: '76a91476458db0ed96fe9863fc1ccec9fa2cfab884b0f688ac',
                    reqSigs: 1,
                    type: 'pubkeyhash',
                    addresses: [
                        'bitcoincash:qpmytrdsakt0axrrlswvaj069nat3p9s7ct4lsf8k9',
                    ],
                },
            },
        ],
        hex: '0200000001758e9f5d544862ad0d138e4f8a8fdf6deaec4bb28411cbfddc9e42577e265214010000006a4730440220184921bfce634a57b5220f06b11b64c0cb7e67ecd9c634335e3e933e35a7a969022038b2074e1d75aa4f6945d150bae5b8a1d426f4284da2b96336fa0fc741eb6de7412102c237f49dd4c812f27b09d69d4c8a4da12744fda8ad63ce151fed2a3f41fd8795ffffffff0201ca9a3b000000001976a9146e1da64f04fc29dbe0b8d33a341e05e3afc586eb88ac96332f11000000001976a91476458db0ed96fe9863fc1ccec9fa2cfab884b0f688ac00000000',
        blockhash:
            '00000000000000008f563edf8604e537fe0d1e80f1c7c2d97dd094824f804ba3',
        confirmations: 5637,
        time: 1612567121,
        blocktime: 1612567121,
        height: 672077,
        address: 'bitcoincash:qpmytrdsakt0axrrlswvaj069nat3p9s7ct4lsf8k9',
    },
    {
        txid: 'e32c20137e590f253b8d198608f7fffd428fc0bd7a9a0675bb6af091d1cb2ea4',
        hash: 'e32c20137e590f253b8d198608f7fffd428fc0bd7a9a0675bb6af091d1cb2ea4',
        version: 2,
        size: 373,
        locktime: 0,
        vin: [
            {
                txid: 'f63e890423b3bffa6e01be2dcb4942940c2e8a1985926411558a22d1b5dd0e29',
                vout: 1,
                scriptSig: {
                    asm: '3045022100c7f51ff0888c182a1a60c08904d8116c9d2e31cb7d2fd5b63c2bf9fd7b246fc102202ee786d2052448621c4a04d18d13c83ac5ee27008dd079e8ba954f8197ff3c6c[ALL|FORKID] 02c237f49dd4c812f27b09d69d4c8a4da12744fda8ad63ce151fed2a3f41fd8795',
                    hex: '483045022100c7f51ff0888c182a1a60c08904d8116c9d2e31cb7d2fd5b63c2bf9fd7b246fc102202ee786d2052448621c4a04d18d13c83ac5ee27008dd079e8ba954f8197ff3c6c412102c237f49dd4c812f27b09d69d4c8a4da12744fda8ad63ce151fed2a3f41fd8795',
                },
                sequence: 4294967295,
                address:
                    'bitcoincash:qpmytrdsakt0axrrlswvaj069nat3p9s7ct4lsf8k9',
            },
            {
                txid: '42d39fbe068a40fe691f987b22fdf04b80f94d71d2fec20a58125e7b1a06d2a9',
                vout: 0,
                scriptSig: {
                    asm: '304402201bbfcd0c120ace9b8c7a6f5e77b61236bb1128e2a757f85ba80101885e9c1212022046fed4006dcd6a236034dede77c566acf74824d14b3ee3da884e9bd93884ff93[ALL|FORKID] 02c237f49dd4c812f27b09d69d4c8a4da12744fda8ad63ce151fed2a3f41fd8795',
                    hex: '47304402201bbfcd0c120ace9b8c7a6f5e77b61236bb1128e2a757f85ba80101885e9c1212022046fed4006dcd6a236034dede77c566acf74824d14b3ee3da884e9bd93884ff93412102c237f49dd4c812f27b09d69d4c8a4da12744fda8ad63ce151fed2a3f41fd8795',
                },
                sequence: 4294967295,
                address:
                    'bitcoincash:qpmytrdsakt0axrrlswvaj069nat3p9s7ct4lsf8k9',
            },
        ],
        vout: [
            {
                value: 1.8725994,
                n: 0,
                scriptPubKey: {
                    asm: 'OP_DUP OP_HASH160 6e1da64f04fc29dbe0b8d33a341e05e3afc586eb OP_EQUALVERIFY OP_CHECKSIG',
                    hex: '76a9146e1da64f04fc29dbe0b8d33a341e05e3afc586eb88ac',
                    reqSigs: 1,
                    type: 'pubkeyhash',
                    addresses: [
                        'bitcoincash:qphpmfj0qn7znklqhrfn5dq7qh36l3vxavu346vqcl',
                    ],
                },
            },
            {
                value: 1.49237053,
                n: 1,
                scriptPubKey: {
                    asm: 'OP_DUP OP_HASH160 76458db0ed96fe9863fc1ccec9fa2cfab884b0f6 OP_EQUALVERIFY OP_CHECKSIG',
                    hex: '76a91476458db0ed96fe9863fc1ccec9fa2cfab884b0f688ac',
                    reqSigs: 1,
                    type: 'pubkeyhash',
                    addresses: [
                        'bitcoincash:qpmytrdsakt0axrrlswvaj069nat3p9s7ct4lsf8k9',
                    ],
                },
            },
        ],
        hex: '0200000002290eddb5d1228a5511649285198a2e0c944249cb2dbe016efabfb32304893ef6010000006b483045022100c7f51ff0888c182a1a60c08904d8116c9d2e31cb7d2fd5b63c2bf9fd7b246fc102202ee786d2052448621c4a04d18d13c83ac5ee27008dd079e8ba954f8197ff3c6c412102c237f49dd4c812f27b09d69d4c8a4da12744fda8ad63ce151fed2a3f41fd8795ffffffffa9d2061a7b5e12580ac2fed2714df9804bf0fd227b981f69fe408a06be9fd342000000006a47304402201bbfcd0c120ace9b8c7a6f5e77b61236bb1128e2a757f85ba80101885e9c1212022046fed4006dcd6a236034dede77c566acf74824d14b3ee3da884e9bd93884ff93412102c237f49dd4c812f27b09d69d4c8a4da12744fda8ad63ce151fed2a3f41fd8795ffffffff02245c290b000000001976a9146e1da64f04fc29dbe0b8d33a341e05e3afc586eb88ac3d2de508000000001976a91476458db0ed96fe9863fc1ccec9fa2cfab884b0f688ac00000000',
        blockhash:
            '00000000000000008f563edf8604e537fe0d1e80f1c7c2d97dd094824f804ba3',
        confirmations: 5637,
        time: 1612567121,
        blocktime: 1612567121,
        height: 672077,
        address: 'bitcoincash:qpmytrdsakt0axrrlswvaj069nat3p9s7ct4lsf8k9',
    },
    {
        txid: 'ec9c20c2c5cd5aa4c9261a9f97e68734b175962c4b3d9edc996dd415dd03c2e7',
        hash: 'ec9c20c2c5cd5aa4c9261a9f97e68734b175962c4b3d9edc996dd415dd03c2e7',
        version: 2,
        size: 1405,
        locktime: 0,
        vin: [
            {
                txid: '3507d73b0bb82421d64ae79f469943e56f15d7db954ad235f48ede33c718d860',
                vout: 0,
                scriptSig: {
                    asm: '3044022000cc5b79e5da60cf4935f3a172089cd9b631b678462ee29091dc610816d059c4022002e3b6f32e825ac04d2907453d6d647a32a995c798df1c68401cc461f6bfbd3a[ALL|FORKID] 0352cbc218d193ceaf4fb38a772856380173db7a908905e3190841b3174c7ae22d',
                    hex: '473044022000cc5b79e5da60cf4935f3a172089cd9b631b678462ee29091dc610816d059c4022002e3b6f32e825ac04d2907453d6d647a32a995c798df1c68401cc461f6bfbd3a41210352cbc218d193ceaf4fb38a772856380173db7a908905e3190841b3174c7ae22d',
                },
                sequence: 4294967295,
                address:
                    'bitcoincash:qphpmfj0qn7znklqhrfn5dq7qh36l3vxavu346vqcl',
            },
            {
                txid: '8f73a718d907d94e60c5f73f299bd01dc5b1c163c4ebc26b5304e37a1a7f34af',
                vout: 0,
                scriptSig: {
                    asm: '3045022100ac50553448f2a5fab1177ed0bc64541b2dba063d04f2d69a8a1d216fb1435e5802202c7f6abd1685a6d81f14ac3bdb0874d214a5f4260719f9c5dc519ac5d8dffd37[ALL|FORKID] 0352cbc218d193ceaf4fb38a772856380173db7a908905e3190841b3174c7ae22d',
                    hex: '483045022100ac50553448f2a5fab1177ed0bc64541b2dba063d04f2d69a8a1d216fb1435e5802202c7f6abd1685a6d81f14ac3bdb0874d214a5f4260719f9c5dc519ac5d8dffd3741210352cbc218d193ceaf4fb38a772856380173db7a908905e3190841b3174c7ae22d',
                },
                sequence: 4294967295,
                address:
                    'bitcoincash:qphpmfj0qn7znklqhrfn5dq7qh36l3vxavu346vqcl',
            },
            {
                txid: 'd38b76bacd6aa75ad2d6fcfd994533e54d0541435970eace49486fde9d6ee2e3',
                vout: 0,
                scriptSig: {
                    asm: '304502210091836c6cb4c786bd3b74b73e579ddf8b843ba51841e5675fa53608449b67371802203de75f32b684cfe2d2e9cd424ea6eb4f49248e6698365c9364ebf84cd6e50eab[ALL|FORKID] 0352cbc218d193ceaf4fb38a772856380173db7a908905e3190841b3174c7ae22d',
                    hex: '48304502210091836c6cb4c786bd3b74b73e579ddf8b843ba51841e5675fa53608449b67371802203de75f32b684cfe2d2e9cd424ea6eb4f49248e6698365c9364ebf84cd6e50eab41210352cbc218d193ceaf4fb38a772856380173db7a908905e3190841b3174c7ae22d',
                },
                sequence: 4294967295,
                address:
                    'bitcoincash:qphpmfj0qn7znklqhrfn5dq7qh36l3vxavu346vqcl',
            },
            {
                txid: 'd47607a72d6bc093556fa7f2cec9d67719bd627751d5d27bc53c4eb8eb6f54e5',
                vout: 0,
                scriptSig: {
                    asm: '3045022100e7727d9d26c645282553aef27947ad6795bc89b505ad089d617b6f696399352802206c736524a1410ed3e30cf1127f7f02c9a249392f8f8e7c670250472909d1c0d6[ALL|FORKID] 0352cbc218d193ceaf4fb38a772856380173db7a908905e3190841b3174c7ae22d',
                    hex: '483045022100e7727d9d26c645282553aef27947ad6795bc89b505ad089d617b6f696399352802206c736524a1410ed3e30cf1127f7f02c9a249392f8f8e7c670250472909d1c0d641210352cbc218d193ceaf4fb38a772856380173db7a908905e3190841b3174c7ae22d',
                },
                sequence: 4294967295,
                address:
                    'bitcoincash:qphpmfj0qn7znklqhrfn5dq7qh36l3vxavu346vqcl',
            },
            {
                txid: '33f246811f794c4b64098a64c698ae5811054b13e289256a18e2d142beef57e7',
                vout: 1,
                scriptSig: {
                    asm: '304402203fe78ad5aaeefab7b3b2277eefc4a2ace9c2e92694b46bf4a76927bf2b82017102200ded59336aba269a54865d9fdd99e72081c0318ccbc37bc0fc0c72b60ae35382[ALL|FORKID] 0352cbc218d193ceaf4fb38a772856380173db7a908905e3190841b3174c7ae22d',
                    hex: '47304402203fe78ad5aaeefab7b3b2277eefc4a2ace9c2e92694b46bf4a76927bf2b82017102200ded59336aba269a54865d9fdd99e72081c0318ccbc37bc0fc0c72b60ae3538241210352cbc218d193ceaf4fb38a772856380173db7a908905e3190841b3174c7ae22d',
                },
                sequence: 4294967295,
                address:
                    'bitcoincash:qphpmfj0qn7znklqhrfn5dq7qh36l3vxavu346vqcl',
            },
            {
                txid: '25f915d2912524ad602c882211ccaf479d6bf87ef7c24d1be0f325cec3727257',
                vout: 0,
                scriptSig: {
                    asm: '30440220670af03605b9495c8ecee357889ceeb137dadaa1662136fdc55c28fe9434e3c60220285195a62811941745a9f93e136e59c96b81d5b0d9525f3d16d001bc0f6fa9bb[ALL|FORKID] 0352cbc218d193ceaf4fb38a772856380173db7a908905e3190841b3174c7ae22d',
                    hex: '4730440220670af03605b9495c8ecee357889ceeb137dadaa1662136fdc55c28fe9434e3c60220285195a62811941745a9f93e136e59c96b81d5b0d9525f3d16d001bc0f6fa9bb41210352cbc218d193ceaf4fb38a772856380173db7a908905e3190841b3174c7ae22d',
                },
                sequence: 4294967295,
                address:
                    'bitcoincash:qphpmfj0qn7znklqhrfn5dq7qh36l3vxavu346vqcl',
            },
            {
                txid: 'c9044b4d7438d006a722ef85474c8127265eced4f72c7d71c2f714444bc0e1f2',
                vout: 0,
                scriptSig: {
                    asm: '304402203f822a0b207ed49e6918663133a18037c24498c2f770c2649333a32f523e259d02203afc42a79d0da123b67f814effeee7c05c7996ea829b3cfa46c5c2e74209c096[ALL|FORKID] 0352cbc218d193ceaf4fb38a772856380173db7a908905e3190841b3174c7ae22d',
                    hex: '47304402203f822a0b207ed49e6918663133a18037c24498c2f770c2649333a32f523e259d02203afc42a79d0da123b67f814effeee7c05c7996ea829b3cfa46c5c2e74209c09641210352cbc218d193ceaf4fb38a772856380173db7a908905e3190841b3174c7ae22d',
                },
                sequence: 4294967295,
                address:
                    'bitcoincash:qphpmfj0qn7znklqhrfn5dq7qh36l3vxavu346vqcl',
            },
            {
                txid: '045306f0019ae0d977de7ff17dd55e861b3fe94458693ee2b94ce5dd7003aab9',
                vout: 0,
                scriptSig: {
                    asm: '3045022100a7a2cf838a13a19f0e443ca35ac5ee3d55f70edca992f98402a84d4ab5ae1ad90220644a02c746eae7b44a4600199ecbf69f3b0f0bdf8479f461c482d67ef4a84e76[ALL|FORKID] 0352cbc218d193ceaf4fb38a772856380173db7a908905e3190841b3174c7ae22d',
                    hex: '483045022100a7a2cf838a13a19f0e443ca35ac5ee3d55f70edca992f98402a84d4ab5ae1ad90220644a02c746eae7b44a4600199ecbf69f3b0f0bdf8479f461c482d67ef4a84e7641210352cbc218d193ceaf4fb38a772856380173db7a908905e3190841b3174c7ae22d',
                },
                sequence: 4294967295,
                address:
                    'bitcoincash:qphpmfj0qn7znklqhrfn5dq7qh36l3vxavu346vqcl',
            },
            {
                txid: '1452267e57429edcfdcb1184b24becea6ddf8f8a4f8e130dad6248545d9f8e75',
                vout: 0,
                scriptSig: {
                    asm: '30440220290701c797eb52ad6721db615c7d6f623c0200be0e6d6802df68c527655475450220446c4a4da9a0df5efcb57711ad61cf6167dfdda937bd0477189be8afedaedd05[ALL|FORKID] 0352cbc218d193ceaf4fb38a772856380173db7a908905e3190841b3174c7ae22d',
                    hex: '4730440220290701c797eb52ad6721db615c7d6f623c0200be0e6d6802df68c527655475450220446c4a4da9a0df5efcb57711ad61cf6167dfdda937bd0477189be8afedaedd0541210352cbc218d193ceaf4fb38a772856380173db7a908905e3190841b3174c7ae22d',
                },
                sequence: 4294967295,
                address:
                    'bitcoincash:qphpmfj0qn7znklqhrfn5dq7qh36l3vxavu346vqcl',
            },
        ],
        vout: [
            {
                value: 5.00001874,
                n: 0,
                scriptPubKey: {
                    asm: 'OP_DUP OP_HASH160 76458db0ed96fe9863fc1ccec9fa2cfab884b0f6 OP_EQUALVERIFY OP_CHECKSIG',
                    hex: '76a91476458db0ed96fe9863fc1ccec9fa2cfab884b0f688ac',
                    reqSigs: 1,
                    type: 'pubkeyhash',
                    addresses: [
                        'bitcoincash:qpmytrdsakt0axrrlswvaj069nat3p9s7ct4lsf8k9',
                    ],
                },
            },
            {
                value: 7.52551634,
                n: 1,
                scriptPubKey: {
                    asm: 'OP_DUP OP_HASH160 6e1da64f04fc29dbe0b8d33a341e05e3afc586eb OP_EQUALVERIFY OP_CHECKSIG',
                    hex: '76a9146e1da64f04fc29dbe0b8d33a341e05e3afc586eb88ac',
                    reqSigs: 1,
                    type: 'pubkeyhash',
                    addresses: [
                        'bitcoincash:qphpmfj0qn7znklqhrfn5dq7qh36l3vxavu346vqcl',
                    ],
                },
            },
        ],
        hex: '020000000960d818c733de8ef435d24a95dbd7156fe54399469fe74ad62124b80b3bd70735000000006a473044022000cc5b79e5da60cf4935f3a172089cd9b631b678462ee29091dc610816d059c4022002e3b6f32e825ac04d2907453d6d647a32a995c798df1c68401cc461f6bfbd3a41210352cbc218d193ceaf4fb38a772856380173db7a908905e3190841b3174c7ae22dffffffffaf347f1a7ae304536bc2ebc463c1b1c51dd09b293ff7c5604ed907d918a7738f000000006b483045022100ac50553448f2a5fab1177ed0bc64541b2dba063d04f2d69a8a1d216fb1435e5802202c7f6abd1685a6d81f14ac3bdb0874d214a5f4260719f9c5dc519ac5d8dffd3741210352cbc218d193ceaf4fb38a772856380173db7a908905e3190841b3174c7ae22dffffffffe3e26e9dde6f4849ceea70594341054de5334599fdfcd6d25aa76acdba768bd3000000006b48304502210091836c6cb4c786bd3b74b73e579ddf8b843ba51841e5675fa53608449b67371802203de75f32b684cfe2d2e9cd424ea6eb4f49248e6698365c9364ebf84cd6e50eab41210352cbc218d193ceaf4fb38a772856380173db7a908905e3190841b3174c7ae22dffffffffe5546febb84e3cc57bd2d5517762bd1977d6c9cef2a76f5593c06b2da70776d4000000006b483045022100e7727d9d26c645282553aef27947ad6795bc89b505ad089d617b6f696399352802206c736524a1410ed3e30cf1127f7f02c9a249392f8f8e7c670250472909d1c0d641210352cbc218d193ceaf4fb38a772856380173db7a908905e3190841b3174c7ae22dffffffffe757efbe42d1e2186a2589e2134b051158ae98c6648a09644b4c791f8146f233010000006a47304402203fe78ad5aaeefab7b3b2277eefc4a2ace9c2e92694b46bf4a76927bf2b82017102200ded59336aba269a54865d9fdd99e72081c0318ccbc37bc0fc0c72b60ae3538241210352cbc218d193ceaf4fb38a772856380173db7a908905e3190841b3174c7ae22dffffffff577272c3ce25f3e01b4dc2f77ef86b9d47afcc1122882c60ad242591d215f925000000006a4730440220670af03605b9495c8ecee357889ceeb137dadaa1662136fdc55c28fe9434e3c60220285195a62811941745a9f93e136e59c96b81d5b0d9525f3d16d001bc0f6fa9bb41210352cbc218d193ceaf4fb38a772856380173db7a908905e3190841b3174c7ae22dfffffffff2e1c04b4414f7c2717d2cf7d4ce5e2627814c4785ef22a706d038744d4b04c9000000006a47304402203f822a0b207ed49e6918663133a18037c24498c2f770c2649333a32f523e259d02203afc42a79d0da123b67f814effeee7c05c7996ea829b3cfa46c5c2e74209c09641210352cbc218d193ceaf4fb38a772856380173db7a908905e3190841b3174c7ae22dffffffffb9aa0370dde54cb9e23e695844e93f1b865ed57df17fde77d9e09a01f0065304000000006b483045022100a7a2cf838a13a19f0e443ca35ac5ee3d55f70edca992f98402a84d4ab5ae1ad90220644a02c746eae7b44a4600199ecbf69f3b0f0bdf8479f461c482d67ef4a84e7641210352cbc218d193ceaf4fb38a772856380173db7a908905e3190841b3174c7ae22dffffffff758e9f5d544862ad0d138e4f8a8fdf6deaec4bb28411cbfddc9e42577e265214000000006a4730440220290701c797eb52ad6721db615c7d6f623c0200be0e6d6802df68c527655475450220446c4a4da9a0df5efcb57711ad61cf6167dfdda937bd0477189be8afedaedd0541210352cbc218d193ceaf4fb38a772856380173db7a908905e3190841b3174c7ae22dffffffff02526ccd1d000000001976a91476458db0ed96fe9863fc1ccec9fa2cfab884b0f688acd206db2c000000001976a9146e1da64f04fc29dbe0b8d33a341e05e3afc586eb88ac00000000',
        blockhash:
            '00000000000000008f563edf8604e537fe0d1e80f1c7c2d97dd094824f804ba3',
        confirmations: 5637,
        time: 1612567121,
        blocktime: 1612567121,
        height: 672077,
        address: 'bitcoincash:qpmytrdsakt0axrrlswvaj069nat3p9s7ct4lsf8k9',
    },
];
